{
  "contractName": "InterestRate",
  "abi": [
    {
      "inputs": [],
      "payable": false,
      "stateMutability": "nonpayable",
      "type": "constructor"
    },
    {
      "anonymous": false,
      "inputs": [
        {
          "indexed": true,
          "name": "_ratingsAgency",
          "type": "address"
        },
        {
          "indexed": false,
          "name": "_name",
          "type": "string"
        },
        {
          "indexed": false,
          "name": "_price",
          "type": "uint256"
        }
      ],
      "name": "LogSellRating",
      "type": "event"
    },
    {
      "anonymous": false,
      "inputs": [
        {
          "indexed": true,
          "name": "_ratingsAgency",
          "type": "address"
        },
        {
          "indexed": true,
          "name": "_issuer",
          "type": "address"
        },
        {
          "indexed": false,
          "name": "_name",
          "type": "string"
        },
        {
          "indexed": false,
          "name": "_price",
          "type": "uint256"
        }
      ],
      "name": "LogBuyRating",
      "type": "event"
    },
    {
      "constant": false,
      "inputs": [],
      "name": "kill",
      "outputs": [],
      "payable": false,
      "stateMutability": "nonpayable",
      "type": "function"
    },
    {
      "constant": false,
      "inputs": [
        {
          "name": "_name",
          "type": "string"
        },
        {
          "name": "_description",
          "type": "string"
        },
        {
          "name": "_price",
          "type": "uint256"
        }
      ],
      "name": "sellRating",
      "outputs": [],
      "payable": false,
      "stateMutability": "nonpayable",
      "type": "function"
    },
    {
      "constant": true,
      "inputs": [],
      "name": "getRating",
      "outputs": [
        {
          "name": "_ratingsAgency",
          "type": "address"
        },
        {
          "name": "_issuer",
          "type": "address"
        },
        {
          "name": "_name",
          "type": "string"
        },
        {
          "name": "_description",
          "type": "string"
        },
        {
          "name": "_price",
          "type": "uint256"
        }
      ],
      "payable": false,
      "stateMutability": "view",
      "type": "function"
    },
    {
      "constant": false,
      "inputs": [],
      "name": "buyRating",
      "outputs": [],
      "payable": true,
      "stateMutability": "payable",
      "type": "function"
    }
  ],
  "bytecode": "0x6060604052341561000f57600080fd5b336000806101000a81548173ffffffffffffffffffffffffffffffffffffffff021916908373ffffffffffffffffffffffffffffffffffffffff160217905550610a0a8061005e6000396000f300606060405260043610610062576000357c0100000000000000000000000000000000000000000000000000000000900463ffffffff16806305cf8d5d146100675780631cf6f7eb146101ce57806341c0e1b514610277578063c9fc6ed61461028c575b600080fd5b341561007257600080fd5b61007a610296565b604051808673ffffffffffffffffffffffffffffffffffffffff1673ffffffffffffffffffffffffffffffffffffffff1681526020018573ffffffffffffffffffffffffffffffffffffffff1673ffffffffffffffffffffffffffffffffffffffff1681526020018060200180602001848152602001838103835286818151815260200191508051906020019080838360005b8381101561012857808201518184015260208101905061010d565b50505050905090810190601f1680156101555780820380516001836020036101000a031916815260200191505b50838103825285818151815260200191508051906020019080838360005b8381101561018e578082015181840152602081019050610173565b50505050905090810190601f1680156101bb5780820380516001836020036101000a031916815260200191505b5097505050505050505060405180910390f35b34156101d957600080fd5b610275600480803590602001908201803590602001908080601f0160208091040260200160405190810160405280939291908181526020018383808284378201915050505050509190803590602001908201803590602001908080601f01602080910402602001604051908101604052809392919081815260200183838082843782019150505050505091908035906020019091905050610441565b005b341561028257600080fd5b61028a6105b9565b005b61029461064e565b005b6000806102a1610925565b6102a9610925565b6000600160009054906101000a900473ffffffffffffffffffffffffffffffffffffffff16600260009054906101000a900473ffffffffffffffffffffffffffffffffffffffff1660036004600554828054600181600116156101000203166002900480601f01602080910402602001604051908101604052809291908181526020018280546001816001161561010002031660029004801561038d5780601f106103625761010080835404028352916020019161038d565b820191906000526020600020905b81548152906001019060200180831161037057829003601f168201915b50505050509250818054600181600116156101000203166002900480601f0160208091040260200160405190810160405280929190818152602001828054600181600116156101000203166002900480156104295780601f106103fe57610100808354040283529160200191610429565b820191906000526020600020905b81548152906001019060200180831161040c57829003601f168201915b50505050509150945094509450945094509091929394565b33600160006101000a81548173ffffffffffffffffffffffffffffffffffffffff021916908373ffffffffffffffffffffffffffffffffffffffff1602179055508260039080519060200190610498929190610939565b5081600490805190602001906104af929190610939565b5080600581905550600160009054906101000a900473ffffffffffffffffffffffffffffffffffffffff1673ffffffffffffffffffffffffffffffffffffffff167f6cb7600d0bb9ae2887f82a751ab37e56e26873531b3da330a4c27be05b95f07a600360055460405180806020018381526020018281038252848181546001816001161561010002031660029004815260200191508054600181600116156101000203166002900480156105a55780601f1061057a576101008083540402835291602001916105a5565b820191906000526020600020905b81548152906001019060200180831161058857829003601f168201915b5050935050505060405180910390a2505050565b6000809054906101000a900473ffffffffffffffffffffffffffffffffffffffff1673ffffffffffffffffffffffffffffffffffffffff163373ffffffffffffffffffffffffffffffffffffffff1614151561061457600080fd5b6000809054906101000a900473ffffffffffffffffffffffffffffffffffffffff1673ffffffffffffffffffffffffffffffffffffffff16ff5b6000600160009054906101000a900473ffffffffffffffffffffffffffffffffffffffff1673ffffffffffffffffffffffffffffffffffffffff161415151561069657600080fd5b6000600260009054906101000a900473ffffffffffffffffffffffffffffffffffffffff1673ffffffffffffffffffffffffffffffffffffffff161415156106dd57600080fd5b600160009054906101000a900473ffffffffffffffffffffffffffffffffffffffff1673ffffffffffffffffffffffffffffffffffffffff163373ffffffffffffffffffffffffffffffffffffffff161415151561073a57600080fd5b6005543414151561074a57600080fd5b33600260006101000a81548173ffffffffffffffffffffffffffffffffffffffff021916908373ffffffffffffffffffffffffffffffffffffffff160217905550600160009054906101000a900473ffffffffffffffffffffffffffffffffffffffff1673ffffffffffffffffffffffffffffffffffffffff166108fc349081150290604051600060405180830381858888f1935050505015156107ed57600080fd5b600260009054906101000a900473ffffffffffffffffffffffffffffffffffffffff1673ffffffffffffffffffffffffffffffffffffffff16600160009054906101000a900473ffffffffffffffffffffffffffffffffffffffff1673ffffffffffffffffffffffffffffffffffffffff167f515357259a66241481e49ff0f94a8e81d36dd18fa504f19e0aec352a819c5f0b600360055460405180806020018381526020018281038252848181546001816001161561010002031660029004815260200191508054600181600116156101000203166002900480156109145780601f106108e957610100808354040283529160200191610914565b820191906000526020600020905b8154815290600101906020018083116108f757829003601f168201915b5050935050505060405180910390a3565b602060405190810160405280600081525090565b828054600181600116156101000203166002900490600052602060002090601f016020900481019282601f1061097a57805160ff19168380011785556109a8565b828001600101855582156109a8579182015b828111156109a757825182559160200191906001019061098c565b5b5090506109b591906109b9565b5090565b6109db91905b808211156109d75760008160009055506001016109bf565b5090565b905600a165627a7a72305820e7deb5a89b42f9011f1d649a5cda456ffa58ef5333e07a82b259435262ae6c2e0029",
  "source": "pragma solidity ^0.4.17;\n\ncontract InterestRate {\n  // state variables\n  address owner;\n  address ratingsAgency; // seller\n  address issuer; // buyer\n  string name;\n  string description;\n  uint256 price; // price of rating\n\n  // events\n  event LogSellRating(\n    address indexed _ratingsAgency,\n    string _name,\n    uint256 _price\n  );\n  event LogBuyRating(\n    address indexed _ratingsAgency,\n    address indexed _issuer,\n    // Add rating from python file here\n    string _name,\n    uint256 _price\n  );\n\n  // modifiers\n  modifier onlyOwner() {\n    require(msg.sender == owner);\n    _;\n  }\n\n  // constructor\n  function InterestRate() public {\n    owner = msg.sender;\n  }\n\n  // deactivate the contract\n  function kill() public onlyOwner {\n    selfdestruct(owner);\n  }\n\n  // sell a Rating\n  function sellRating(string _name, string _description, uint256 _price) public {\n    ratingsAgency = msg.sender;\n    name = _name;\n    description = _description;\n    price = _price;\n\n    LogSellRating(ratingsAgency, name, price);\n  }\n\n  // get a Rating\n  function getRating() public view returns (\n    address _ratingsAgency,\n    address _issuer,\n    string _name,\n    string _description,\n    uint256 _price\n  ) {\n      return(ratingsAgency, issuer, name, description, price);\n  }\n\n  // buy an Rating\n  function buyRating() payable public {\n    // we check whether there is an Rating for sale\n    require(ratingsAgency != 0x0);\n\n    // we check that the Rating has not been sold yet\n    require(issuer == 0X0);\n\n    // we don't allow the ratingsAgency to buy his own Rating\n    require(msg.sender != ratingsAgency);\n\n    // we check that the value sent corresponds to the price of the Rating\n    require(msg.value == price);\n\n    // keep issuer's information\n    issuer = msg.sender;\n\n    // the issuer can pay the ratingsAgency\n    ratingsAgency.transfer(msg.value);\n\n    // trigger the event\n    LogBuyRating(ratingsAgency, issuer, name, price);\n  }\n}\n",
  "sourcePath": "E:\\DApp-Brendan-Test\\test1\\contracts\\InterestRate.sol",
  "compiler": {
    "name": "solc",
    "version": "0.4.19+commit.c4cbbb05.Emscripten.clang"
  },
  "schemaVersion": "2.0.0",
  "updatedAt": "2018-07-17T15:50:38.581Z"
}